:020000040000FA
:0600000099EF12F012005E
:0600080004EF08F01200F5
:060018000CEF08F01200DD
:0610000099EF12F012004E
:021006001200D6
:06100800A6EF0EF012003D
:02100E000000E0
:021010000000DE
:06101800F1EF0EF01200E2
:02101E000100CF
:0C1020000E100000AC00000004000000F6
:04102C0071EC0EF065
:10103000A0940F015F6B626A536B50EC0EF0F7ECFB
:101040000DF0DF6ADF500B6E0C6A140E0B5C000EA5
:101050000C5810E2DF50040DF3CFE9FFF4CFEAFFA4
:10106000000EE926020EEA22EE6AEE6AEE6AEE6AE7
:10107000DF2AE8D7648C0F015C6B6498649C62A6DD
:1010800007D062960001816B866B876B886BF7D700
:101090000001010E9E6F9F6FA06BA16B8E6BDF6ACC
:1010A000050EDF5C11E2EA6ADF3474EC0EF0EA222E
:1010B000EE6AED6AEA6ADF347BEC0EF0EA22EE6A51
:1010C000ED6AC0EC0DF0ECD70001080E736F020E54
:1010D000746F0F01160E536F0201500E026F020E55
:1010E000036F080E016F840E006F0001616B606B6F
:1010F000E55292EF0DF071EC0EF00001600507E192
:1011000064BA05D0626A60806088020E606F6250C7
:10111000040B05E06050040B02E0629444DB64B20F
:1011200046D06250010B09E06050010B06E07EDF03
:10113000A0840001040E606F62906250100B05E005
:101140006050100B02E025DB629862AC0FD060ACFF
:1011500005D00FEC0EF0730E7FEC0DF0629C0001D9
:101160009C5101E09C079C5101E10AD96250200B7F
:1011700004E06050200B01E0FBDA6250020B0CE04F
:101180006050020B09E00FEC0EF0E6687F0EE66E91
:1011900082EC0EF00F015F6B040E0001E76E601928
:1011A000E8AE02D0E73402D0E750605D02E2A194DD
:1011B0002ED060A62BD0DF6A040EDF5C27E262A689
:1011C00025D063CF8FF000018F51780BE842E842C1
:1011D000E842906F62968FB504D0905189EC0EF082
:1011E00003D090518EEC0EF0EA22EF70905102E1A4
:1011F000E6DA0AD0000EE66EE66A8F0EE66E000EA4
:10120000E66E720E7FEC0DF0DF2AD6D7A194E55280
:1012100092EF0DF042EC0EF0FD0EDBA403D0E66A77
:10122000FFEC0DF0FD0EDBA204D0010EE66EFFEC2C
:101230000DF0FE0EDB500C6A530F0B6E0F0EF1EC2F
:101240000DF083EC0DF0FD0EDBCFEFFF020EE15C45
:1012500002E2E16AE552E16E92EF0DF042EC0EF02F
:10126000FD0EDB5003E07AEC0DF002D0B1EC0DF096
:10127000DDEC0DF0D9CFE9FFDACFEAFFEE50ED104B
:1012800003E1F36AF46A28D083EC0DF09DEC0EF0D4
:10129000FB0EDBCFEEFFFC0EDBCFEDFF83EC0DF0A2
:1012A000EE52FA0EDBCFEFFF400E93EC0EF0880EFD
:1012B000A2EC0EF0FD0EDB5003E07AEC0DF002D054
:1012C000B1EC0DF0EA22EF74DECF0BF0DDCF0CF0C5
:1012D0000BC0F3FF0CC0F4FF020EE15C02E2E16A16
:1012E000E552E16E92EF0DF042EC0EF0FE0EDB5097
:1012F00003E159EC0EF009D0B6EC0DF030EC0EF035
:10130000B6EC0DF0010F30EC0EF0020EE15C02E2E3
:10131000E16AE552E16E92EF0DF08DEC0DF064A8FC
:1013200016D06AEC0EF0400EEE16EE6AEE6AEE6A29
:101330006AEC0EF0EE7CDEDBEA22EF74400E0B6E00
:101340006AEC0EF00B50EF166AEC0EF0EF7CEAD36D
:10135000646A606A0001606B1200000160510FE175
:10136000646A606AF7EC0DF0D08EA284A084F28EDD
:1013700064B602D06486FCD70001010E606F1200D3
:1013800000019E5122E1010E9E6F9F511EE1010E50
:101390009F6F020E7E5D07E1BBDBEE52EF6AB8DBAA
:1013A000C80EEF6E12007E0510E1916BC7DBEE52A6
:1013B000080EEF6EC3DB3CEC0EF0C0DB840EEF6E6C
:1013C000010E916F93DB800EEF6E12000001A06B97
:1013D000A16B020E7E5D06E197EC0EF0B4DB2BEC08
:1013E0000EF010D082510201565D000183510201BE
:1013F000575904E256C282F057C283F061D888DBA5
:10140000A2DB86DBC80EEF6E120042EC0EF0000E7F
:10141000DE6E020EDD6EAADB040DF4CF0CF0D9CF28
:10142000E9FFDACFEAFFF350EE260C50ED226BDB3A
:10143000EF9EFD0EDB5002E194DB01D05BDBEA2284
:10144000DECFEEFFDDCFEDFF5EDBEF9C5CDB040E5D
:10145000E926000EEA22EF8C020EE15C02E2E16A6C
:10146000E552E16E5FD36498000181BF0DD086AF75
:1014700009D0020E7E6FA15101E1A8DF00019F6B30
:101480009E6B120059EF0EF0020150AF0DD000011B
:10149000010E7E6FA05101E199DF00019F6B9E6BF1
:1014A0009D510DE1C0EF09F00001020E7E6F1EDBC1
:1014B000840EEF6E9F6B9E6B9D5101E161DF120008
:1014C00071EC0EF0080EDF6E0001825D000E835994
:1014D0000AE282C0DFFF7D5102E1010E03D07D05EB
:1014E00002E1020E7D6FDF500C6AE850825D826F70
:1014F0000C508359836F0CDBEE52DFCFEFFF580E99
:101500008B6F020E8C6F81B10DD0DF5017E07FC062
:10151000F6FF80C0F7FF7F2B000E80230800F550F8
:101520003FDBF3D7DF500AE07FC0E9FF80C0EAFF6E
:101530007F2B000E8023EF5033DBF4D7E552F2D23D
:10154000A1DBFCDAEE52EFCFDFFFDFCF0BF00B5069
:101550000001875D000E885902E287C0DFFFDF507F
:101560000B6E0C6AE850875D876F0C508859886F46
:10157000010EDB6ADF50F36E010EDBCFF4FFF35098
:10158000F45C16E2010EDB50EA6A580FE96E020EB7
:10159000EA22EF50E66E84C0E9FF85C0EAFF842BA3
:1015A000000E8523E552E750EF6E010EDB2AE2D7ED
:1015B000000ED8808755000E88550DE2B8DBC3DADF
:1015C000BDDAEF50400B03E146DBC80E02D043DB2F
:1015D000880EEF6E12D08ADA840EEF6E89518A116E
:1015E00007E005D08AC0FAFF00018951F96EFADFE1
:1015F0000001869F9D5101E1C3DE020EE15C02E223
:10160000E16AE552E16E8ED26CDB0001818F48DB2E
:10161000500EE66EE66AE66A000EE66E020E99DA93
:10162000648CDF6A050EDF5C02E2AADAFBD7030EE8
:10163000E66EE66AE66A620EE66E000E8ADA649C80
:101640000001080E736F020E746F000E656F020EBC
:10165000666F65C067F0686F52C261F0615102E168
:10166000100E0BD0010EE66EE66A610EE66E000EFD
:10167000E66E010E44DA0001200E606FE55252D290
:10168000800E0201505D38E10001C00E816F020141
:101690005351030A1AE0010A09E0030A2BE1000191
:1016A000680E7F6F230E806F120E1ED0C6DA370EC3
:1016B000F626240EACDA020E0001B8DAF5CF82F07D
:1016C000030EB4DAF5CF83F01200030E525D0FE281
:1016D000B4DA390EF626240E9ADA7FC0F6FF80C0FF
:1016E000F7FF0800F5500001826F836B12000001C4
:1016F000816B12000001816B1200C4DA0201586B89
:10170000596B50511F0B020A11E0030A0CE0010A49
:101710001EE10001818F0201588100018D0517E152
:101720000201588314D00001818F11D00001818FF4
:10173000020154BF02D0C4DA01D0C7DA3EDACDDAF2
:1017400006E0E1D9EF50040B02E0010E586F0001F2
:1017500081AF07D0580E7F6F020E806F8181020E1D
:10176000826F020EE15C02E2E16AE552E16EDAD1DB
:101770000F0153A10CD0E2D9EF50800807E1C8D97E
:10178000EF50840803E1DAD98C0EEF6E5391629A20
:1017900012006084629864820001010E8E6F13DA79
:1017A000750E7FEF0DF000018E6B0DDA740EA7D968
:1017B0006492609462A402D06294FCD7120091DA21
:1017C00000012D0E9C6FFD0E8F1539E17E0E8F15D9
:1017D000E8407F0B040DF3CF65F0F4CF66F0000E08
:1017E0006527020E662365C067F066C068F06775FE
:1017F000A5D9EF503C0BE842E8420D081EE1DF6A34
:10180000080EDF5C16E29AD9020EE926000EC2D954
:10181000EF50E66EDF50EA6A500FE96E020EEA22E0
:10182000E552E750EF6E8AD988DAEE2AEF22DF2AF6
:10183000E7D784D921DA0AD807D023D805D0FD0EFE
:101840008F15040801E12CD8E5526CD100017D6BA5
:101850009D6BA06BA16B916B7E6B5AD9EF9E7375DC
:1018600057D9EF9E7375F7D9EF9E816B826B836BAF
:10187000866B876B886B51D8A6D9030E40D933EF9E
:101880000AF0020E00017E5D02E1A0EF0AF07E6B1D
:10189000915104E12BD98C0EEF6E1200916B120066
:1018A00020DA36D9EF50400B01E0010EDF6E000167
:1018B0007375080E605D0BE152C25CFF0F015C5155
:1018C00003E00001100E02D00001040E606F7E05DF
:1018D00013E11ED938D9F4DD020E00017D5D03E16C
:1018E00017D9840E07D0DF5003E112D9C80E02D0F9
:1018F0000FD9880EEF6E0FD086AF0CD089518A11A8
:1019000007E005D08AC0FAFF00018951F96EFADFBD
:101910000001869F7E6BE55205D102015051600B9C
:10192000E842E842E842E842E842000901E01200E9
:1019300051510C0A45E00B0A3FE00C0A31E0010A64
:1019400022E00B0A1EE0020A1CE0030A18E0080A63
:1019500010E0010A0CE00F0A08E0030A01E012009F
:101960000001818F080E606F120040EF0BF004EF52
:101970000BF00001610E7F6F000E806F0CD07DEFC9
:101980000BF0E1EF0CF0545100017F6F806B620EA1
:101990007F27000E80238181010E826F818F1200CC
:1019A0000001818F02015451EA6A620FE96E000E54
:1019B000EA2252C2EFFF120006D9020E7FEF0DF0AD
:1019C0001200ABD8050EE1260201520510E150517C
:1019D0001F0B00090CE10001818F030E0201515D14
:1019E00004E10001010E8D6F02D000018D6B020138
:1019F000525101E074D050511F0B020870E1545154
:101A00000F0B00096CE054510F0B040868E3200E23
:101A10000001605D64E1818F020154BF04D050D9A0
:101A2000CCD8D7D803D051D9C8D8D7D8EA22020EFB
:101A3000EFCFDBFF09D9010B03E1000EDF9401D0EA
:101A4000DF8454BF02D03CD901D03FD9EA22DECF97
:101A5000EEFFDDCFEDFF030E515D0CE13ED907E057
:101A600054BF02D0B6D801D0B8D8EA22EF82840E93
:101A700069D935D0DF7431D906E045D8EF9E43D817
:101A8000EF8C04D902D03FD8EF8CDF74DDD8020B85
:101A900002E123D90DE0020154BF02D09AD801D04F
:101AA0009CD8EA22EF923B0E0B6E3DD9EFD802D0C4
:101AB0003B0E39D9020154510F0B0C6A530F0B6EB8
:101AC0000F0E0C22030E0BC0DBFF040E0CC0DBFF5D
:101AD000030EDBCFE9FF040EDBCFEAFFEF90050E2C
:101AE000E15C02E2E16AE552E16E1CD020D9C4D883
:101AF0002BEF0EF0FE0EEA6ADB3474EF0EF0E66EAA
:101B0000E66A82EF0EF0DECFE9FFDDCFEAFF1200DA
:101B100073C0E9FF74C0EAFF1200D9CFE6FFE1CF3E
:101B2000D9FF1200E552E7CFD9FF120054510F0B35
:101B3000E96EEA6AD890E936EA36120065C0E9FF34
:101B400066C0EAFF1200F9D8580EEE6E020EED6E76
:101B50001200E66E6FEC12F00B6E050EE15E0B509C
:101B60001200FE0EEA6ADB347BEF0EF0FD0EDB5056
:101B7000E8240D6EFE0EDB50040DF3500D24120010
:101B8000DF50CCD8EA22EF6ADF50C3D8EA22EF6AEE
:101B9000DF2A1200EA22EE50EFCFEAFFE96E1200D0
:101BA000E66E8BC0E9FF8CC0EAFF8B2B000E8C2306
:101BB000E552E750EF6EDF061200EA22EECFDEFFBD
:101BC000EDCFDDFF1200000EE66EE66AE66EE66A15
:101BD000120054510F0B89EF0EF054510F0B8EEF82
:101BE0000EF00C220BC0DEFF0CC0DDFF1200160E43
:101BF000616E0F019F0E5B6F7B0E606E1200FE0E1A
:101C0000DBCFE6FF05EC0AF0E552E5521200F722C1
:101C10000900F5CF7FF00A00F5CF80F01200010E29
:101C2000E66EE66A000EE66EE66A1200F76A7F2547
:101C3000F66E8051F722080012005251F66EF76AD4
:101C4000D890F636F7361200D950020FE96EDACF87
:101C5000EAFFEF50120067C0E9FF68C0EAFF120018
:101C6000040DF3CF0BF0F4CF0CF0000E0B26020E98
:101C7000B8DF840EA2EF0EF060D8500EEE6E020EAA
:101C8000ED6E12004ADF020EE1261200020EE66E31
:101C9000E66ADECFE6FFDDCFE6FF050E7FEF0DF053
:101CA000040EE66EE66AE66A540EE66E0F0EA9EFC3
:101CB0000DF01CDF8C0EEF6E2BDF840EEF6E12002A
:101CC00035DF690EE926000E120030DF730EE926BB
:101CD000000E12000FDFCAEF0DF015DFEF50800B82
:101CE00012001BDFE6521200FE0BEA36E96E730E9D
:101CF000E926000E1200FE0BEA36E96E690EE926AF
:101D0000000E1200ECEC10F00B6E060EE15E0B50B4
:101D10001200EA6A970FE96E000E1200EA6A920F4B
:101D2000E96E000E1200EFDEE850EF16120093DFAE
:101D3000EE52080EEF6E2BEF0EF0020EE926000EAB
:0C1D4000EA221200E0DEE850EF12120070
:041D4C00DACFE4FF07
:101D5000E2CFDAFFE9CFE4FFEACFE4FFF6CFE4FF1A
:101D6000F7CFE4FFF5CFE4FFF3CFE4FFF4CFE4FFD8
:101D7000FACFE4FF00EE00F00B0EE80403E3EECF31
:101D8000E4FFFBD700EE0BF0030EE80403E3EECF15
:101D9000E4FFFBD7E6527BEC08F0E55200EE0DF0D5
:101DA000030EE80403E3E5CFEDFFFBD700EE0AF0F6
:101DB0000B0EE80403E3E5CFEDFFFBD7E5CFFAFF19
:101DC000E5CFF4FFE5CFF3FFE5CFF5FFE5CFF7FF74
:101DD000E5CFF6FFE5CFEAFFE5CFE9FFE5CFDAFF94
:101DE0001100D8CFE4FFE0CFE4FFE46EDACFE4FFE8
:101DF000E652E552E5CFDAFFE550E5CFE0FFE5CF6B
:101E0000D8FF100015D8ADEC09F0200E0001E76EE8
:101E10006019E8AE02D0E73402D0E750605DF5E328
:101E20006450020BF2E129D884D8CDD80ED9EDD771
:101E30004ADAE652C16A2E0EC06E700E7E6E040E35
:101E40007F6EC280900E936ECF0E946EDF6A040E8A
:101E5000DF5C0AE22ADAEF6A3FDAEF6A1FDAEF6A3A
:101E60002BDAEF6ADF2AF3D70001AC6BAD6BAE6BF8
:101E7000AF6B16EC08F0E5522BD225DA050EE12601
:101E80008250080B01E0010EE76E010EE7CFDBFF89
:101E90008250400B01E0010EE76E020EE7CFDBFF40
:101EA0008250800B01E0010EE76E030EE7CFDBFFEF
:101EB0008150800B01E0010EE76E040EE7CFDBFFDF
:101EC000DF6A020EDF5C2EE235DAE8D9EF500B5CF8
:101ED00022E030DA01DAEF500B5C03E0E6D9EF6A7A
:101EE0001AD0E3D9EFCF0BF0050EE76E0B18E8AE72
:101EF00002D0E73402D0E7500B5C0DE2D6D9EF2ACE
:101F0000EF50050808E1D8D9010EEF6E1CDAC6D9EA
:101F1000E552E750EF6E17DADFD9E552E750EF6E82
:101F2000DF2ACFD7050EE15C02E2E16AE552E16EFD
:101F3000CFD1C9D9E652DF6A020EDF5C28E2BCD9F4
:101F4000EF0423E10001AC51AD1102E1000E03D01A
:101F5000E1D901E0010E000918E1AED9EF6AC3D959
:101F60009DD9EF5006E1E081E093E095E087900E87
:101F700005D0E091E093E095E087800EE16F3C0EA4
:101F8000DF24E26F7F0EE36F6BD9DF2AD5D7E552EE
:101F90009FD199D9FE0EDB500F0BF36EF346F3463B
:101FA000C30EC214F310C26E140EE66EE66AE66A41
:101FB000E66A9AD8E552E552E552E552C282C2B2CB
:101FC000FED7C45085D17FD9030EE126010EDB6A0E
:101FD000020EDB6ADF6ADFCF0BF0200EE76E0B1814
:101FE000E8AE02D0E73402D0E7500B5C03E2050E06
:101FF00045D9F1D787D9D8900C320B32E804FBE1F0
:102000000BC0F4F2010EDB6A020EDB6ADF6ADFCF7F
:102010000BF0200EE76E0B18E8AE02D0E73402D0CA
:10202000E7500B5C03E2040E29D9F1D76BD9D890A5
:102030000C320B32E804FBE10BC0F5F2030EE15C5D
:1020400002E2E16AE552E16E43D13DD9E652DF6A30
:10205000DFCF0BF0020EE76E0B18E8AE02D0E734CC
:1020600002D0E7500B5C3EE261D9E9BEEA6859D97B
:10207000EFCF0BF05BD9E9BEEA68F80EE926020E55
:10208000EA22EF500B5C2CE00001AC51AD1102E1F3
:10209000000E03D03FD901E0010E000921E123D950
:1020A000E081E083E095E087B00EE16F0A0EDF2467
:1020B000E26F3CD9E9BEEA6834D9EFCFE3F2D0D879
:1020C00035D9E9BEEA682DD9EF50E66E2FD9E9BEC1
:1020D000EA68F80EE926020EEA22E552E750EF6EB2
:1020E000DF2AB6D7E552F4D0D9CFE6FFE1CFD9FF4A
:1020F000FB0EDBCF05F0FC0EDBCF06F0FD0EDBCFD9
:1021000007F0FE0EDBCF08F00834000E081809E6D1
:10211000D880000E0554000E0654000E0754000E21
:10212000085416E20000000000000000000000005B
:102130000000000000000000D950FB0FE96EFF0E08
:10214000DA20EA6EEE06000EEE5AEE5AEE5AD0D7BC
:10215000E552E7CFD9FF1200120012001200120060
:10216000120012001E0EE66E010EE66E0AEC09F079
:10217000E552E552400EE66E600EE66E020EE66E29
:10218000E66A010EE9D8F3CFAEF0F4CFAFF012005B
:1021900000018D0520E100018E051DE1A094DDDF29
:1021A000649200018E6B0201100EFC6F0E0EFD6F2B
:1021B000FC07000EFD5BFC51FD11FAE16484080E82
:1021C000FC6F070EFD6FFC07000EFD5BFC51FD115F
:1021D000FAE16494A084120076D8FD0EDBCF06F0FD
:1021E000FE0EDBCF07F0050E061801E1075036E0C2
:1021F000E868061802E17F0E07182FE0030E0618A4
:1022000001E1075028E0020E061801E1075021E025
:10221000010E061801E107501AE0740E061801E1DC
:10222000075013E0750E061801E107500CE0730E1D
:10223000061801E1075005E0720E06180FE107507D
:102240000DD08CDF0BD088DF09D087DF07D08ADF85
:1022500005D087DF03D084DF01D081DF010E38D0C5
:10226000040EE66EE00EE66E020EE66E010EE66EFF
:1022700073D8F3CFACF0F4CFADF01200E66E89DE88
:10228000E5520B6E0C6AD950010FE96EDACFEAFF06
:102290000B50EE260C50ED22DF2A1200DF50EA6AC6
:1022A000EC0FE96E020EEA221200DF50EA6AE40F38
:1022B000E96E020EEA221200DF50EA6AF00FE96EC0
:1022C000020EEA221200D9CFE6FFE1CFD9FF1200B9
:1022D000E552E7CFD9FF1200DF50EA6AE80FE96E56
:1022E000020EEA2212000201E06BE16BE26BE36B8B
:1022F000E099E09BE09DE09F1200E96E000EDA207D
:10230000EA6E1200010EDBCF0BF0020EDBCF0CF0F9
:10231000050E1200ACC0E9FFADC0EAFFEF50800B24
:102320001200F40EE926020EEA221200DFCFE9FFC6
:10233000EA6A1200D950010F0C6EDF500C24DDDF69
:10234000EFCF0BF01200D950010F0B6EDF500B24B2
:10235000D4DFEF50E66E1200E66E2EEC09F00B6E45
:08236000050EE15E0B501200B6
:08236800120100020000000850
:10237000D80474F70100010200010902650002019E
:1023800000C032090400000001010000092401001E
:1023900001090001010904010002010300000724F2
:1023A000010001410006240201010006240202028C
:1023B00000092403010301020100092403020401AE
:1023C000010100090501024000000000052501018E
:1023D00001090581024000000000052501010304F8
:1023E00003090434034D006900630072006F006349
:1023F00000680069007000200054006500630068F8
:10240000006E006F006C006F0067007900200049CB
:10241000006E0063002E00200344006D0039002090
:10242000004D00490044004900200042007200694C
:0F243000006400670065007A23DF23E32317248D
:102440001E0EF66E100EF76E000EF86E00010900FB
:10245000F550A76F0900F550A86F03E1A76701D0F9
:102460003DD00900F550A26F0900F550A36F090097
:10247000F550A46F09000900F550E96E0900F55008
:10248000EA6E090009000900F550A56F0900F55032
:10249000A66F09000900F6CFA9F0F7CFAAF0F8CF90
:1024A000ABF0A2C0F6FFA3C0F7FFA4C0F8FF000185
:1024B000A55302E1A65307E00900F550EE6EA5070B
:1024C000F8E2A607F9D7A9C0F6FFAAC0F7FFABC08C
:0E24D000F8FF0001A707000EA85BBFD712009F
:0224DE00FE0EF0
:1024E000E3CFE9FFFF0EE3CFEAFFE9CFF3FFEACF47
:1024F000F4FFFB0EE35003E1FC0EE35009E0FB0E9A
:10250000E30602E2FC0EE306FD0EE350EE6EF1D7A9
:022510001200B7
:0E251200000EF36E00EE00F0030E01D8120072
:10252000EA6002D0EE6AFCD7F350E9601200EE6A6E
:02253000FCD7D6
:0E25320011EE00F021EE00F0F86A0A9C20EC99
:0E25400012F003EC08F002EC0FF0FBD71200D3
:020000040030CA
:0100000000FF
:0100010032CC
:0100020021DC
:010003001EDE
:0100050000FA
:010006008178
:0100080003F4
:01000900C036
:01000A0003F2
:01000B00E014
:01000C0003F0
:01000D0040B2
:00000001FF
